:100000004DC3000073C3000071C300000C941122A3
:100010006DC300000C943C2269C3000067C300005C
:1000200065C3000063C3000061C300005FC300003C
:100030005DC300005BC3000059C3000057C300004C
:1000400079C5000053C3000051C4000090C40000F3
:100050004DC300004BC3000049C3000047C300006C
:100060000C94432D43C30000EF26EF26F427B62758
:100070007F27EF26EF26EF267F27B6270000000711
:100080000002010000030406000000000000000060
:10009000010204081020408001020408102001021F
:1000A00004081020040404040404040402020202EC
:1000B00002020303030303030000000023002600E1
:1000C000290000000000250028002B00000000008F
:1000D000240027002A002020202020200025750051
:1000E000256400222563223A2564002564682530B2
:1000F00032646D2530326400556E6B6E6F776E2002
:10010000737461747573210054656D702E20636F74
:100110006E74726F6C204F464600446F6F72206F92
:1001200070656E0057616974696E6720666F722032
:100130007065616B0049646C00496E76616C69643E
:10014000206D6F6465002A2A2054657374696E6798
:10015000202A2A004F66660050726F66696C65003F
:10016000526F6F6D2020004D6F646500202D2D2E85
:100170002D00002074696D65206C65667400576100
:10018000697420746F2000696E6720666F72004882
:1001900065617400436F6F6C00436F6E73742E0063
:1001A00046726964676520004265657220002C22F2
:1001B00056223A5B0022257322006C6F6749440087
:1001C0006C6F6754797065004265657200467269AC
:1001D0006467650025532074656D70207365742015
:1001E000746F20257320696E204D656E752E005446
:1001F000656D7020636F6E74726F6C207475726EB3
:100200006564206F666620696E206D656E752E00D0
:100210004368616E67656420746F2070726F6669F1
:100220006C65206D6F646520696E206D656E752E3E
:1002300000202020202020202020202020200025F9
:1002400075006E756C6C0022257322005374617406
:100250006500526F6F6D54656D700046726964671A
:1002600065416E6E00467269646765536574004649
:10027000726964676554656D700042656572416EB0
:100280006E0042656572536574004265657254651F
:100290006D700022257322004E3A7B2276223A228C
:1002A0002553222C226E223A25642C2263223A22E4
:1002B0002553222C2273223A25642C2279223A25B6
:1002C000642C2262223A222563222C226C223A22BA
:1002D0002564227D00302E322E3400303030303014
:1002E0003030300025532073657420746F202573DF
:1002F000202553004672696467652074656D70003F
:10030000426565722074656D70004D6F64650062B2
:10031000792074656D706572617475726520707294
:100320006F66696C6500696E2077656220696E741E
:1003300065726661636500706F735065616B006E16
:1003400065675065616B00706F735065616B4573D5
:1003500074006E65675065616B45737400657374F6
:100360005065616B006400690070006265657253DE
:100370006C6F70650064696666496E74656772616A
:100380006C006265657244696666006873006C6142
:10039000680062656572536C6F706546696C7400C5
:1003A00062656572536C6F7746696C74006265654F
:1003B000724661737446696C74006672696467653D
:1003C000536C6F706546696C74006672696467652A
:1003D000536C6F7746696C74006672696467654632
:1003E00061737446696C74006D6178436F6F6C540F
:1003F000696D65466F72457374006D61784865611B
:100400007454696D65466F7245737400636F6F6CE9
:100410005461726765744C00636F6F6C54617267EE
:1004200065744800686561745461726765744C0056
:1004300068656174546172676574480069646C65CD
:1004400052616E67654C0069646C6552616E6765E8
:100450004800694D6178457272004B64004B690039
:100460004B70007069644D61780074656D70536500
:10047000744D61780074656D705365744D696E00DC
:1004800074656D70466F726D617400636F6F6C455B
:10049000737400686561744573740066726964679B
:1004A000655365740062656572536574006D6F64B1
:1004B0006500AD040000BA1FA50400005C1F9B048A
:1004C0000000DA1F93045F04681C8B046104681C3D
:1004D00080040000011C750464040A1C6A0466049C
:1004E0000A1C63048804741C60046804681C5D04AE
:1004F0006A04681C5A046C04681C52046E04741C60
:1005000047047004741C3C047204741C30047404AA
:10051000741C24047604741C18047804741C0C04E1
:100520007A04741CFA037C04161CE8037E04161C6F
:100530008E038604221C8B038704221CD90300002F
:10054000331CCA030100331CBA030200331CAD0381
:100550000300331CA0030400331C92030500331C6A
:1005600082030003750302036B0306036903080299
:1005700067030A0265030C025D030E0152031001BA
:10058000470312013F0314013703160180040004DE
:10059000750401016A040301630425036004050274
:1005A0005D0407025A04090252040B0347040D03B9
:1005B0003C040F033004110324041303180415032F
:1005C0000C041703FA031905E8031B05D9031D00E2
:1005D000CA031E00BA031F00AD032000A0032100C0
:1005E000920322008E0323008B03240000020400E8
:1005F00003000110030200000302010006000400D2
:100600000605002006050400030201002300010086
:100610001302000003050400030304100305032074
:100620000000000046726964676520646F6F722085
:10063000255300636C6F736564006F70656E65644D
:10064000004300A200DC000A800000FD000100025F
:1006500000FE99009AFF660067FF5802B00401048B
:10066000030304040000001425642E2530336400C5
:1006700025642E253032640025642E253031640037
:100680006E756C6C00000F07FA07860804110213E0
:10069000982903088F0820110913B12911241FBEBE
:1006A000CFEFD8E0DEBFCDBF12E0A0E0B1E0E4E6DE
:1006B000F7E602C005900D92A635B107D9F725E0FF
:1006C000A6E5B2E001C01D92AC30B207E1F716E03A
:1006D000C2E9D6E004C02297FE010E94C12EC638AE
:1006E000D107C9F70E946F170C94A6330C947C179E
:1006F000FC0124853585F901E05CFF4F8081918103
:10070000329620813181821B930B8F739927089534
:10071000FC0184859585FC01E05CFF4F408151819F
:100720003296208131814217530741F00190F081C8
:10073000E02DE80FF91F808190E008958FEF9FEF83
:100740000895FC0184859585FC01E05CFF4F4081A4
:1007500051813296208131814217530779F0A0816F
:10076000B181A80FB91F8C91208131812F5F3F4F3C
:100770002F7333273183208390E008958FEF9FEF0D
:100780000895FC0181A1882329F0A489B5898C9161
:1007900086FFFBCF11A20895CF93DF93FC0126853E
:1007A0003785D901A05CBF4F8D919C91119701961F
:1007B0008F739927E901CE5BDF4F488159818417F8
:1007C0009507D9F30D90BC91A02DA20FB31F6C9388
:1007D000A685B785A05CBF4F11969C938E93A68982
:1007E000B7892C9181E090E0078C02C0880F991F97
:1007F0000A94E2F7282B2C9381E081A30488F589E1
:10080000E02D80818064808381E090E0DF91CF9152
:100810000895A0E0B0E0EFE0F4E00C94FA2E6C0153
:100820007A01EB01E60EF71E00E010E0CE15DF05C1
:1008300061F06991D601ED91FC910190F081E02D7C
:10084000C6010995080F191FF1CFC801CDB7DEB752
:10085000E8E00C94162F833081F028F4813099F071
:100860008230A1F008958630A9F08730B9F0843045
:10087000D1F4809180008F7D03C0809180008F77BC
:1008800080938000089584B58F7702C084B58F7DF2
:1008900084BD08958091B0008F7703C08091B0002F
:1008A0008F7D8093B0000895A2E0B0E0EAE5F4E027
:1008B0000C94FE2E8C016115710589F0CB016983C2
:1008C0007A830E949E30D801ED91FC910280F381E1
:1008D000E02DAC0169817A81C801099502C080E0F0
:1008E00090E02296E4E00C941A2F08951F920F9244
:1008F0000FB60F9211242F933F934F938F939F9393
:10090000EF93FF938091C00082FD1CC04091C60010
:10091000809105039091060301968F73992720918A
:100920000703309108038217930771F0E0910503E4
:10093000F0910603EB53FD4F4083909306038093A1
:10094000050302C08091C600FF91EF919F918F91A6
:100950004F913F912F910F900FBE0F901F901895C0
:100960008FE592E0C5DE892B09F0BFCF08951F9275
:100970000F920FB60F9211242F933F938F939F9353
:10098000EF93FF932091C1023091C2028091C30284
:100990009091C4022817390731F48091C1008F7DEE
:1009A0008093C10014C0E091C302F091C402EF57DC
:1009B000FD4F20818091C3029091C40201968F73F4
:1009C00099279093C4028093C3022093C600FF919D
:1009D000EF919F918F913F912F910F900FBE0F90AC
:1009E0001F901895CF92DF92EF92FF92CF93DF93F3
:1009F000EC016A017B01411581EE58076105710523
:100A0000F9F0EC89FD8981E090E008A002C0880F30
:100A1000991F0A94E2F7808360E079E08DE390E02B
:100A2000A70196010E94812E2150310941095109E7
:100A30005695479537952795211580E1380798F009
:100A4000EC89FD89108260E874E88EE190E0A701EE
:100A500096010E94812E2150310941095109569574
:100A6000479537952795E889F989832F99278083BA
:100A7000EA89FB89208319A2EE89FF89408181E000
:100A800090E09C010C8C02C0220F331F0A94E2F705
:100A9000422B4083EE89FF8940819C010D8C02C06E
:100AA000220F331F0A94E2F7422B4083EE89FF891D
:100AB00040819C010E8C02C0220F331F0A94E2F782
:100AC000422B4083EE89FF8920810F8C02C0880F62
:100AD000991F0A94E2F7809582238083DF91CF915A
:100AE000FF90EF90DF90CF90089581E00895DCCEE5
:100AF0000895DC01ED91FC910190F081E02D0995C4
:100B000008950F931F93CF93DF93EC016DE0F1DF16
:100B10008C016AE0CE01EDDF800F911FDF91CF9154
:100B20001F910F9108950C94272F08950C94BF2FB7
:100B3000089508951F920F920FB60F9211242F93CC
:100B40003F938F939F93AF93BF9380915702909160
:100B50005802A0915902B0915A023091560223E0F6
:100B6000230F2D3720F40196A11DB11D05C026E8E5
:100B7000230F0296A11DB11D2093560280935702A8
:100B800090935802A0935902B0935A0280915B024D
:100B900090915C02A0915D02B0915E020196A11D50
:100BA000B11D80935B0290935C02A0935D02B093B1
:100BB0005E02BF91AF919F918F913F912F910F90C6
:100BC0000FBE0F901F9018952FB7F89460915702A1
:100BD000709158028091590290915A022FBF089546
:100BE0003FB7F89480915B0290915C02A0915D0206
:100BF000B0915E0226B5A89B02C02F3F89F43FBF8B
:100C00006627782F892F9A2F620F711D811D911DE4
:100C100042E0660F771F881F991F4A95D1F7089504
:100C20000196A11DB11DEBCFCF92DF92EF92FF9203
:100C3000CF93DF936B017C01D3DFEB01C114D104AF
:100C4000E104F10471F0CCDF6C1B7D0B683E734056
:100C5000A8F381E0C81AD108E108F108C851DC4FB7
:100C6000EDCFDF91CF91FF90EF90DF90CF9008957F
:100C70000197009739F0880F991F880F991F0297E5
:100C80000197F1F70895789484B5826084BD84B5A6
:100C9000816084BD85B5826085BD85B5816085BD77
:100CA000EEE6F0E0808181608083E1E8F0E0108290
:100CB000808182608083808181608083E0E8F0E0D1
:100CC000808181608083E1EBF0E0808184608083BB
:100CD000E0EBF0E0808181608083EAE7F0E08081F2
:100CE0008460808380818260808380818160808352
:100CF0008081806880831092C1000895CF93DF9334
:100D000090E0FC01E057FF4F2491FC01EC55FF4FB0
:100D10008491882349F190E0880F991FFC01E453E6
:100D2000FF4FA591B4918E539F4FFC01C591D49173
:100D30009FB7611108C0F8948C91209582238C9301
:100D4000888182230AC0623051F4F8948C91322F4A
:100D5000309583238C938881822B888304C0F894F8
:100D60008C91822B8C939FBFDF91CF910895A1E04E
:100D7000B0E0EDEBF6E00C94FE2E282F30E0F90108
:100D8000E458FF4F8491F901E057FF4F1491F901A6
:100D9000EC55FF4F04910023C1F0882319F06983BB
:100DA0005ADD6981E02FF0E0EE0FFF1FEE53FF4F99
:100DB000A591B4919FB7F8948C91611103C01095DF
:100DC000812301C0812B8C939FBF2196E4E00C947A
:100DD0001A2FCF93DF93282F30E0F901E458FF4F0B
:100DE0008491F901E057FF4FD491F901EC55FF4F81
:100DF000C491CC2379F081112EDDEC2FF0E0EE0FC1
:100E0000FF1FE854FF4FA591B4912C912D2381E051
:100E100090E011F480E090E0DF91CF91089510927E
:100E200062021092610288EE93E0A0E0B0E080934D
:100E3000630290936402A0936502B09366028EE110
:100E400091E09093600280935F0285EC92E0909332
:100E50006C0280936B0281E892E090936E02809323
:100E60006D0285EC90E09093700280936F0284ECA9
:100E700090E0909372028093710280EC90E09093E6
:100E800074028093730281EC90E0909376028093D9
:100E9000750282EC90E0909378028093770286EC62
:100EA00090E090937A028093790284E080937B02B1
:100EB00083E080937C0287E080937D0285E08093CD
:100EC0007E0281E080937F0208952EE231E0FC01F2
:100ED000318320830895FC0162830895FC0182819F
:100EE00008952EE231E0FC013183208308952EE243
:100EF00031E0FC013183208319CE08952EE231E0E8
:100F0000FC013183208312CE089582E193E0C0D0AA
:100F100044EF51E062E082E193E0CAD00E94D31C2A
:100F20000E943A230E94A5220E9437110E94DC11E0
:100F30000E946C120C94602208950F931F9344DE5C
:100F40000091090310910A0320910B0330910C03C7
:100F5000601B710B820B930B683E734081059105FA
:100F600008F441C031DE6093090370930A03809353
:100F70000B0390930C0380910F03882369F0E09199
:100F80001203F09113030280F381E02D82E193E0DC
:100F9000099561E0682701C060E082E193E057D0E5
:100FA0000E9416230E94AB280E94A62310914104A0
:100FB0000E9478268091410418130E943A1F0E94D3
:100FC0003B2880912C04882321F010922C040E944D
:100FD0001F180E946C120E94F9110E9438128FE3B0
:100FE00093E00E9498160E94A2201F910F910895ED
:100FF000A4CF08958AE391E090930E0380930D03AC
:1010000010920F0308958EE291E090930E03809367
:101010000D0308952FEF2F5FFC01E20FF11D27FD57
:10102000FA953081332321F06313F5CF822F089591
:101030008FEF08952EE231E0FC0131832083089583
:101040002EE231E0FC013183208370CD0895A1E0D0
:10105000B0E0EDE2F8E00C94FE2E8C01DC01ED91A5
:10106000FC910280F381E02D6983099569816817FD
:1010700059F0F80162838091B000662311F080621C
:1010800001C08F7D8093B0002196E4E00C941A2F6C
:1010900061E083E033DE81E28093B0008BE08093F7
:1010A000B1008DE78093B3008EE38093B400089580
:1010B000A0E0B0E0EEE5F8E00C94FB2ED62E7A012D
:1010C000C0E0D0E0062F10E001501109CD15C8F4A2
:1010D0008091B00080628093B000B70180E193E01E
:1010E0000E94BD2C8091B0008F7D8093B000C0170E
:1010F000D1072CF4B70180E193E00E94BD2C21962A
:10110000E5CFCDB7DEB7E7E00C94172F10921403AC
:1011100086E491E0909313038093120308958EE286
:1011200091E090931303809312030895FC0171835F
:1011300060830895FF920F931F93CF93DF93EC0189
:101140008B01F42E888199810E943319B80188811E
:1011500099810E94FA1940E06F2D888199810E943F
:10116000C419CDB7DEB7E5E00C94192FEF92FF92CA
:101170000F931F93CF93DF93EC017A014EEBDADFED
:1011800000E010E0888199810E94E019F7018193C5
:101190007F010F5F1F4F09301105A1F788819981E9
:1011A0000E943319CDB7DEB7E6E00C94182FA0E00B
:1011B000B0E0EDEDF8E00C94FA2EEC017B018A0131
:1011C000C22E4EE4B7DF0E5F1F4F83E0D82EF8012A
:1011D00061918F0140E0888199810E94C419DA945D
:1011E000B1F7888199810E943319CC2079F0B70139
:1011F000888199810E94FA1940E068E48881998188
:101200000E94C419888199810E943319CDB7DEB735
:10121000E8E00C94162F1F93CF93DF93EC0144EB7F
:1012200089DF888199810E949919182F8881998175
:101230000E94331981E0111180E0DF91CF911F915D
:101240000895EF92FF920F931F93CF93DF938C013A
:101250007B01EA018BDF68E0CE010E94D61A9885F7
:10126000891306C0B701C801D6DF91E0982701C0F5
:1012700090E0892FCDB7DEB7E6E00C94182FA9E0F7
:10128000B0E0E5E4F9E00C94FB2E8C017B01AE01AB
:101290004F5F5F4FD6DFD82E811102C0D12C23C003
:1012A0008B8181110CC08FE78D8381E08B8320E0DF
:1012B000AE014F5F5F4FB701C80179DF14C01B82D9
:1012C00021E0AE014F5F5F4FB701C80170DFAE0193
:1012D0004F5F5F4FB701C801B4DF8823F9F28B81FC
:1012E0008111DCCFE0CF8D2D2996E7E00C94172FEC
:1012F000A9E0B0E0EEE7F9E00C94FC2E8C017B0154
:10130000FC01808191810E943319B701F80180812D
:1013100091810E94FA1940E064E4F8018081918192
:101320000E94C419AE014F5F5F4FB701C80189DF4A
:10133000882329F081E09B81911101C080E02996EA
:10134000E6E00C94182FA9E0B0E0E9EAF9E00C948B
:10135000002FAE014F5F5F4F74DF882319F08B8140
:10136000811103C080E090E806C08A8190E0982F48
:1013700088272981822B2996E2E00C941C2F26E9EC
:1013800031E0FC0131832083089580E00895DC0181
:10139000ED91FC910084F185E02D099521E0811506
:1013A000904809F420E0822F089580E090E80895A5
:1013B000FC01848108952EEB31E0FC013183208310
:1013C00008952EEB31E0FC013183208308952EEB4C
:1013D00031E0FC013183208308952EE231E0FC01ED
:1013E00031832083089526E931E0FC013183208395
:1013F000089580E0089526E931E0FC0131832083DF
:1014000095CB08952EEB31E0FC01318320838ECB08
:1014100008952EEB31E0FC013183208387CB0895C2
:101420002EEB31E0FC013183208380CB08952EE246
:1014300031E0FC013183208379CB089526E931E046
:10144000FC013183208372CB0895FC016483828187
:101450008627682F83818BCC0895CF93DF93EC018F
:101460008B81B7DC2A8130E041E08217930709F4D1
:1014700040E0842FDF91CF9108950F931F93CF9376
:10148000DF938B01EA01FC0160818EE491E0C2DD13
:1014900087FD08C0C80FD11D87FDDA95C8010E94DD
:1014A0004E306883DF91CF911F910F9108950F9374
:1014B0001F93CF93DF938B01EA01FC01608184E5E8
:1014C00091E0A8DD87FD08C0C80FD11D87FDDA9522
:1014D000C8010E944E306883DF91CF911F910F9118
:1014E000089586E991E090933803809337038EE264
:1014F00091E090933A03809339038EEB91E09093BF
:101500003D0380933C030895613029F4825082307A
:1015100058F080E00895623019F48130D1F704C0AA
:101520006111F7CF8111F5CF81E008957F936F931B
:101530002BE531E03F932F938F9385E48F930E94A7
:10154000DF160F900F900F900F900F900F9008954F
:10155000A0E0B0E0EEEAFAE00C94FB2E8C01FC0176
:101560008381813019F0823041F14DC0623089F4BD
:1015700084E090E0D8DAEC01F801F580148128ECE1
:1015800031E03983288362E0812FB8DBFA821B8344
:101590003CC085E090E0C7DAEC01F8018581148158
:1015A00022EB31E0398328838A831B8360E0CE01FC
:1015B0004CDF61E0812FA2DB28C0F80184818E30EE
:1015C00029F488E2E82E83E0F82E02C0E12CF12C09
:1015D00080E190E0A8DAEC01F801D78480E292E0A3
:1015E00099838883FB82EA821D821C8281E08F8737
:1015F000B801695F7F4F48E050E0CE0106960E9437
:101600008D30DE8602C0C0E0D0E0CE01CDB7DEB7BF
:10161000E7E00C94172FFC018081823078F48181FF
:10162000823060F4E281E150E93040F4F0E0EE0F06
:10163000FF1FE458FE4F80819181089580E090E083
:101640000895A1E2B0E0E7E2FBE00C94FC2E7C01FF
:10165000162F211104C06CE249A34BDA49A1842F53
:10166000992787FD90959F934F931F921F9383EE29
:1016700090E09F938F938E010F5F1F4F1F930F93E7
:101680000E94BC30B801C70132DA0FB6F894DEBF51
:101690000FBECDBFA196E6E00C94182F0C945B13FF
:1016A0000895FB012081222399F0213408F027536B
:1016B0002295207FFB013181313410F0375301C076
:1016C0003053232BFC012193CF016E5F7F4FE9CF75
:1016D0000895EF92FF920F931F93CF93DF937C01B6
:1016E0008B01EA01FC01608188ED91E093DCF70158
:1016F0009081913631F448E0B801CE010A96D1DFED
:1017000016C09A3651F4C8010E94562B25E09595D3
:1017100087952A95E1F789870AC087FD08C0C80F19
:10172000D11D87FDDA95C8010E944E306883CDB780
:10173000DEB7E6E00C94182FCF93DF93DA01FC01BB
:1017400070E09F01281B390B26173707BCF4EF0107
:10175000208122952F702A3010F0295C01C0205D75
:101760002C93319628812F702A3010F0295C01C00B
:10177000205D11962C9311971296E3CFFB01EE0F8B
:10178000FF1FE40FF51F1082DF91CF910895FC0138
:1017900020812F3F49F48381811110C081E0FB013A
:1017A000928191110CC008C0332727FD309550E07D
:1017B00081E02417350719F080E0089581E008954D
:1017C000A2E1B0E0E6EEFBE00C94FD2E8C01F12CE2
:1017D0006F2DCE0101966FD7882331F1F8018381F7
:1017E0009C8189131FC08130C1F08230F9F4888553
:1017F000882399F088E0815080F0282F30E0F801AC
:10180000E20FF31FA8E0B0E0AC0FBD1FA20FB31FA3
:1018100047819C91491779F305C0F80194818D8126
:10182000981721F0F394D4CF8FEF01C08F2D6296DB
:10183000E5E00C94192F81508C3030F4E82FF0E063
:10184000E059FE4F8081089580E00895CF92DF92A5
:10185000FF920F931F93CF93DF931F92CDB7DEB705
:101860008C01DC011296FC908F2DE5DF282FC8013A
:101870002983D1DE6C012981009709F45CC02230F4
:1018800009F444C0233079F1213009F054C0FC013F
:1018900080819181F6E0FF120E94A02C23E0873323
:1018A000920709F448C0D80112962C91263031F4E1
:1018B00027E333E0F601318320830BC0D601ED919D
:1018C000FC9127E333E031832083EF50FF4F2FEF6C
:1018D0002083009781F1DC01ED91FC910280F3817E
:1018E000E02D099528C0FC0180819181F3E08933C6
:1018F0009F0709F1009739F0DC01ED91FC9106801A
:10190000F781E02D099589E393E012C0DC018D9108
:101910009C91B3E08C339B0771F0009739F0DC01A8
:10192000ED91FC910480F581E02D09958CE393E025
:10193000F601918380830F90DF91CF911F910F91DA
:10194000FF90DF90CF900895A2E1B0E0EAEAFCE0DA
:101950000C94FF2E81E089838A8310E01B83CE01E3
:10196000019674DF1F5F1031C9F76296E3E00C94B3
:101970001B2FA1E0B0E0EFEBFCE00C94FA2E6C0121
:10198000DC0112968C9157DF682FC601698343DE14
:101990008C0169810097D1F1F6018681811136C0F1
:1019A000613049F098F1643088F5C601D1DDD80185
:1019B0008D939C932BC061E0C601CADD7C01D801E8
:1019C0008D919C91892B29F4F601628170E082E06F
:1019D000ADDDD60112968C91863061F4D701ED9180
:1019E000FC910680F781E02DC7010995F801F1828D
:1019F000E0820CC0D8018D919C91FC01F182E082C3
:101A0000EF50FF4F2FEF20830E94A82B2196E8E094
:101A10000C94162FFF920F931F93CF93DF93EC013B
:101A20002881622F70E06530710514F084E05FC09A
:101A30009981692F70E06730710514F085E057C017
:101A40008A81682F70E0603171050CF04FC08823E7
:101A500021F0893008F04EC006C0911102C0222347
:101A6000F1F080E003C021111AC081E01F922F9392
:101A70001F929F931F928F9389E591E09F938F937D
:101A800087E08F9385E48F930E94DF168DB79EB712
:101A90000A960FB6F8949EBF0FBE8DBF29C0CBDE4D
:101AA000F82E0B81602F30DD182F811117C01F9287
:101AB0000F931F92FF922AE531E03F932F9388E026
:101AC0008F9385E48F930E94DF168DB79EB708969B
:101AD0000FB6F8949EBF0FBE8DBF10C0023071F4D8
:101AE0006C816E3059F070E089E001C086E01EDD47
:101AF00010E004C09111D3CF82E0B8CF812FCDB7D1
:101B0000DEB7E5E00C94192FA1E1B0E0EAE8FDE0D2
:101B10000C94F82EA82E8B016A017901FB018281B9
:101B20008ADEB82E80912703811104C06CE2C701C0
:101B30000E947905109227036BE7C7010E9479057F
:101B400021E04A2D69E6C7017CDD20E04B2D64E7EA
:101B5000C70177DD20E0F801408163E6C70171DD50
:101B600020E0F801418162E6C7016BDD20E0F80169
:101B7000428166E6C70165DD20E0F801438168E641
:101B8000C7015FDD20E0F801468164E6C70159DD49
:101B900020E0F801448160E7C70153DDC114D1049E
:101BA00069F0F6018081882349F06DE571E0C70195
:101BB0000E947705B601C7010E947705F80183816D
:101BC000813029F420E0458168E7C7013ADDF8015A
:101BD00083818230B1F463E671E0C7010E9477052A
:101BE000AE014F5F5F4F68E0C8010796A5DDBE01FB
:101BF0006F5F7F4FC7010E94770562E2C7010E94B5
:101C00007905F80183818230D1F44785F0E24F02F3
:101C1000A0011124662757FD6095762F08E023E088
:101C2000CE0101960E94112B6AE671E0C7010E9465
:101C30007705BE016F5F7F4FC7010E9477056DE793
:101C4000C7010E9479056196EAE00C94142FA4E282
:101C5000B0E0EDE2FEE00C94FC2E7C0162E185E157
:101C600093E069D565E173E089E69BE00E94592025
:101C700060911503613108F07CC0CE0101961BD53F
:101C800042E150E0BE016F5F7F4FCE0143960E945C
:101C90008D308091160387FF8B8B8091170387FF10
:101CA0008C8B8091180387FF8D8B8091190387FFA0
:101CB0008E8B80911A0387FF8F8B80911E038F3F3D
:101CC00009F08AA380911B0387FF888F80911F03EF
:101CD0008F3F41F048E050E06FE173E0CE014A965B
:101CE0000E948D3080911D0387FF898F8D8981111E
:101CF00004C062E1CE01439626D540911503BE0192
:101D00006F5F7F4FCE01439685DE882391F0CE0131
:101D100001969CDDCE01439699DDCE01439629DEE6
:101D200060911503CE014396E6D48E010D5E1F4FE0
:101D300011C049E651E05F934F9383E08F9385E4B0
:101D40008F930E94DF160F900F900F900F908E01CF
:101D50000F5F1F4F85E50E94011D81E080932703DF
:101D6000970140E050E0B80180911503CDDE0E945C
:101D7000FC1CA496E6E00C94182FFB012385348507
:101D8000AB014F5F5F4FBC018081BECE08958F9243
:101D90009F92AF92BF92CF92DF92EF92FF920F93FA
:101DA000CF93DF93CDB7DEB76D970FB6F894DEBF54
:101DB0000FBECDBF7C014B015A016901FB0184813B
:101DC000882339F038DDF70163819EDB882309F42D
:101DD00061C0C701F5DCF601808387FD07C0F4010F
:101DE0009381911157C0682FC70158DCF601118209
:101DF000F4018281882309F449C0F701838182308C
:101E000009F044C04601FFEF8F1A9F0A8DE0F701E9
:101E10003496DE01519601900D928A95E1F78989F9
:101E20008E3019F488E293E002C080E090E020E276
:101E300032E03A8329839C838B831E821D8281E05A
:101E4000888B48E050E0BE016C5E7F4FCE01079664
:101E50000E948D301F86CE0101960E948D1B882323
:101E600029F0CE0101960E94EB1B02C080E090E8B1
:101E7000AC01662757FD6095762F09E023E0C40189
:101E80000E94EA2ACE0101960E94F01AB601C7010B
:101E9000F50109956D960FB6F894DEBF0FBECDBF64
:101EA000DF91CF910F91FF90EF90DF90CF90BF9097
:101EB000AF909F908F900895A2E1B0E0E2E6FFE03E
:101EC0000C94F72E8C016B015A0162E1CE01019650
:101ED0003AD481E08C8389834EE8E42E41E0F42EED
:101EE00099249394F70181917F0187FD13C0F80134
:101EF00091819F3F11F0981308C08D839E829501B8
:101F0000A601B801CE01019642DFF2E9EF16F1E039
:101F1000FF0641F7F80181818F3F11F0843041F4D1
:101F200084E08D839501A601B801CE0101962FDFD3
:101F30006296EBE00C94132FA4E1B0E0E2EAFFE03C
:101F40000C94F92E8C017B016A0162E1CE010196AD
:101F5000FAD3F80181818F3F11F08E3081F58EE048
:101F60008D8381E0898388E293E00E94131A52E016
:101F7000B52EBE01685F7F4F88E293E00E94491A48
:101F80008823E9F08885883211F4BC8201C01C8264
:101F90008C81823069F468E273E0CE014396C6D842
:101FA000BE01685F7F4FCE01439669D9882309F34C
:101FB0009601A701B801CE010196E9DEDACF649659
:101FC000E9E00C94152FA2E1B0E0E9EEFFE00C94FB
:101FD000FE2E8C01198A188A8FEF8F878E871A8AB6
:101FE000BE01625F7F4F8DE39AE00E9459201D87FA
:101FF0000C8781E0809327038E858F3F41F08230EC
:1020000031F08E858F3F61F0813091F409C0AE01CF
:102010004F5F5F4F6DEB7EE0CE010E968DDFF1CF0F
:10202000AE014F5F5F4F6DEB7EE0CE010E9644DF59
:102030006296E4E00C941A2FAF92BF92DF92EF9277
:10204000FF920F931F93CF93DF931F92CDB7DEB70D
:102050008C017B015A01DB011296DC908D2DEBDBAC
:10206000282F882309F463C0C7012983D4DAFC012F
:102070002981009709F45BC0D80112963C9137FD85
:1020800010C0233071F480819181DC01ED91FC91CD
:1020900061E0311101C060E00190F081E02D09950F
:1020A00046C0D80111968C91813009F040C0223091
:1020B00049F480819181DC01ED91FC910190F081E6
:1020C000E02D24C02130C1F480819181B6E0DB1283
:1020D0000E94A02CDC01ED91FC910084F185E02DA3
:1020E0000995AC01662757FD6095762F09E023E03E
:1020F000C5010E94EA2A1BC02330C9F48081918166
:10210000DC01ED91FC910280F381E02D09951F9295
:102110008F938DED90E09F938F93BF92AF920E942B
:10212000BC300F900F900F900F900F900F900F906A
:10213000DF91CF911F910F91FF90EF90DF90BF90B3
:10214000AF900895A0E2B0E0E8EAF0E10C94FD2E33
:102150008C0164E0CE014D96EED218A2BE01635E02
:102160007F4F87E59AE00E9459208D8D8E3F01F5C3
:102170008F8D87FD45C011E0811101C010E01093E3
:1021800092048091900490919104DC01ED91FC9176
:102190000190F081E02D612F0995112389F181E1F2
:1021A00093E00E94B42C90938D0480938C0428C0FB
:1021B00081E080932703F12C6F2DCE0101967BD215
:1021C0008823F1F04F2DBE016F5F7F4FCE014D96FA
:1021D000DEDA882399F01B8AAE014D5E5F4FBE01A7
:1021E0006F5F7F4FCE014D9627DF9801AE014D5EA8
:1021F0005F4FBE016F5F7F4F8F2D86DCF394DCCF86
:10220000A096E5E00C94192F82ED91E090933D03A8
:1022100080933C0310923E038AE391E090933A034B
:102220008093390310923B0384EA91E09093380342
:10223000809337036EE088E293E00C94251A0895AA
:1022400050C90895A5E1B0E0E8E2F1E10C94FE2E5A
:102250008C01CE0101960E948630BE016F5F7F4FD8
:10226000C8010E9477056596E4E00C941A2F8FEF61
:102270008093A50382E08093A4038FE393E043D58A
:1022800020E044E064E18FE393E0E2D48FE393E065
:1022900061C40895A9E0B0E0E0E5F1E10C94FE2E00
:1022A000811520E8920731F46CE671E08FE393E04A
:1022B000C9DF21C0AC01662757FD6095762F09E084
:1022C00021E0CE0101960E94EA2ACE0101960E94E9
:1022D0009E3015E0181B00E0011734F460E28FE334
:1022E00093E0A0D40F5FF8CFBE016F5F7F4F8FE305
:1022F00093E00E9477052996E4E00C941A2FCF937F
:10230000DF93EA01462F682F8FE393E05CD4CE0180
:10231000C1DFDF91CF9108950E940F26AC0161E0EB
:1023200086E0EDCF08950E942126AC0161E08CE0AB
:10233000E6CF08958091A40380FF0CC08091100126
:1023400090911101DC01ED91FC910084F185E02D6B
:10235000099502C00E942626AC0162E086E0CFCF3C
:1023600008950E9438262091A40320FF02C080E037
:1023700090E8AC0162E08CE0C2CF0895462F682F50
:102380008FE393E020D46FED8FE393E04BD4609123
:1023900063048FE393E046C40895CF93DF93EA018B
:1023A000462F682F8FE393E00ED4BE018FE393E0B6
:1023B00049DFDF91CF91089547E651E060E080E08A
:1023C000ECDF48EA51E061E080E0E7DF8091A403C0
:1023D00080FF03C040E651E002C040EA51E062E005
:1023E00080E0DBDF61E082E1C9DF62E082E1C6CF4D
:1023F00008958091A40381FF21C081E193E00E94B0
:10240000B42C83FD0CC08091100190911101DC016E
:10241000ED91FC910480F581E02D099501C080E0EB
:102420009091A403292F2170821741F0882311F085
:10243000916001C09E7F9093A403BEDF6DDF73DFC8
:1024400079DF8FCF08958093A403B6DFD2CF0895AC
:10245000CF93DF93EA01462F682F8FE393E0B3D346
:10246000BE018FE393E00E947705DF91CF9108953D
:1024700040E067E08FE393E0A6D380915A048F3663
:10248000F9F038F4823661F08636E9F460EA71E0FA
:1024900009C0803769F08437B1F466E471E015C093
:1024A00068EA71E08FE393E0CDDE69E971E00DC089
:1024B00068EA71E08FE393E0C5DE68E571E005C08E
:1024C00064E571E002C069E371E08FE393E0BADE96
:1024D0008FE393E065C40895ABE0B0E0E2E7F2E19A
:1024E0000C94FC2E80913E04811103C02091410484
:1024F00001C022E08091A503281719F12093A503BC
:102500002A3078F4822F90E0880F991FFC01E85060
:10251000FE4F40815181FC01EC51FE4F0081118141
:1025200004C002E711E048EF50E063E080E02B8751
:1025300034DFB8018FE393E085DE8FE393E030D49E
:102540002B852B870E9464252B8521110EC00E94AC
:1025500054258C010E945C250817190718F40E9465
:10256000542519C00E945C2516C03DEF320F323051
:1025700090F0283011F0293039F424EB30E0A90133
:10258000481B590BCA0107C025502230B8F580916D
:102590003404909135048F3F5FEF950779F1ECE3B8
:1025A000F0E0BF010E946D2E9C01CB01BF010E9493
:1025B0006D2E7B013F932F939F938F93FF926F9389
:1025C0008BEE90E09F938F938E010F5F1F4F1F93B1
:1025D0000F930E94BC300FB6F894DEBF0FBECDBF84
:1025E000E114F10429F40297AE014D5F5F4F01C081
:1025F000A80163E094E1981B892F2ADF2B96E6E07F
:102600000C94182F24E044E167E28FE393E02FC29B
:10261000089580E192E09093400380933F030895F2
:1026200080E090E00E94D73291E0843009F090E0A1
:10263000892F08950F931F93CF93DF93C0E0D0E0CD
:1026400060E0CE010E94EE322196C11584E0D807E9
:10265000B9F77AD90E94B8250E94E12506E010E07A
:10266000C8010E946C25E801A89606591F4FCE01AB
:102670000E9474252B96C017D107C9F7CE3A81E086
:10268000D80711F08E01ECCF64E080E090E00E946A
:10269000EE320E943A23DF91CF911F910F9108955E
:1026A0008EE290E00C947425089586E090E00E94FC
:1026B0006C25F6CF0895A1E0B0E0E1E6F3E10C94DB
:1026C000FE2E8C016983ACDF6981882311F06031B3
:1026D00010F080E00CC082E1689FB00111246255C7
:1026E0007E4F42E150E0C8010E94C73281E021964E
:1026F000E4E00C941A2FA1E0B0E0E1E8F3E10C94DF
:10270000FE2E8C0169838CDF6981882311F0603192
:1027100010F080E00CC082E1689FB0011124625586
:102720007E4F42E150E0C8010E94DF3281E02196F5
:10273000E4E00C941A2F2FEF615020F0FC0121935C
:10274000CF01FACF0895615020F0FC011192CF0122
:10275000FACF0895A2E1B0E0E0EBF3E10C94FE2E95
:102760005FDF082F882331F1EFD886E090E00E94E8
:10277000AF258EE290E00E94FB2510E0612FCE0194
:10278000019699DF8823B1F0412FBE016F5F7F4F23
:10279000CB0140D9882321F0CE010196EAD808C0A8
:1027A00062E1CE010196CFDF612FCE010196A3DF5A
:1027B0001F5FE4CF802F6296E4E00C941A2FCF9332
:1027C000DF93FC01EC01C45BDF4FDC01A35BBF4F77
:1027D00098E0908F82E0818F92AB83AB98838C934B
:1027E000DF91CF910895FC01862F880F8C5F808F39
:1027F000618F82AB63ABDF01A45BBF4F8C93E35B64
:10280000FF4F608308950F931F93CF93DF938C0145
:10281000C0E0D0E0C8018C0F9D1F33D0AB01BC01DC
:102820006A96CE34D105B1F7CB01BA01DF91CF91D1
:102830001F910F910895AB01662757FD6095762F84
:10284000BA0155274427DFCF0895805C9F4FFC01D4
:10285000608171818281938108950F931F93CF933B
:10286000DF93EC018B01A1D0B801CE014A969DD037
:10287000B801CE01C49699D0DF91CF911F910F91ED
:102880000895A4E0B0E0E7E4F4E10C94F02EFC013C
:1028900049835A836B837C8384809580A680B7802C
:1028A00080869186A286B386408051806280738044
:1028B0004482558266827782408351836283738328
:1028C0000089118922893389048B158B268B378BDC
:1028D000C484D584E684F784C08AD18AE28AF38AE4
:1028E000418DA08D2A2E312CC701B601601B710BC2
:1028F000820B930B6C0D7D1D8E1D9F1D042E04C03D
:10290000F594E794D794C7940A94D2F76C197D098B
:102910008E099F096801790104C0F594E794D79462
:10292000C7944A95D2F76C0D7D1D8E1D9F1DC980E1
:10293000DA80EB80FC800A2E04C0F594E794D794EB
:10294000C7940A94D2F76C0D7D1D8E1D9F1DA101A9
:102950004150510904C075946794579447944A951F
:10296000D2F7640D751D861D971D04C0B594A794FC
:1029700097948794AA95D2F7680D791D8A1D9B1D9F
:10298000D101129704C03595279517950795AA95FB
:10299000D2F7601B710B820B930B64877587868758
:1029A00097872496E2E10C940C2FFC01AB0166277B
:1029B00057FD6095762FBA015527442740835183F0
:1029C000628373834483558366837783408751870B
:1029D000628773874487558766877787408B518BDB
:1029E000628B738B448B558B668B778B08950F931B
:1029F0001F93FC014089518962897389048515857B
:102A00002685378504171507260737075CF4848960
:102A10009589A689B789481759076A077B0714F073
:102A2000CB0102C080E090E81F910F9108950F93B1
:102A30001F93FC014089518962897389048515853A
:102A40002685378540175107620773075CF4848930
:102A50009589A689B78984179507A607B70714F043
:102A6000CB0102C080E090E81F910F910895FC0116
:102A70001382128280E192E0918380836483438792
:102A80002487158608950F93CF93DF931F92CDB7B8
:102A9000DEB7FC012585622B698301E021E041E07E
:102AA000BE016F5F7F4F84810E94E02C0F90DF9109
:102AB000CF910F910895FC01158660E0E4CF089551
:102AC00028E0FC01258760E0DECF08951F93CF93B7
:102AD000DF93EC01162F6460D6DF81E090E00E9466
:102AE0003806612F6B7FCE01CEDF82E390E00E943B
:102AF0003806DF91CF911F9108951F93CF93DF93F5
:102B0000EC01162FC0DF612FCE01E0DFDF91CF9106
:102B10001F910895EF92FF921F93CF93DF931F921F
:102B2000CDB7DEB77C01162F607F642B4983E5DFCC
:102B300080E1189FB00111244981642BC701DDDFBA
:102B40000F90DF91CF911F91FF90EF90089540E09B
:102B5000E1CF0895CF93DF93EC0161E0F8DFAC851E
:102B600080E090E065E1B0E28A17F8F47B85689F29
:102B7000A001699F500D11244C0F5D1F20E030E033
:102B8000271738F4FA01E20FF31FB18B2F5F3F4F85
:102B9000F7CF689FF001699FF00D1124EC0FFD1F26
:102BA000E70FF11D118A0196DFCF80ED97E00E94BB
:102BB0003806DF91CF91089562E0C9DF80ED97E09C
:102BC0000C9438060895A8E0B0E0E9EEF5E10C9425
:102BD000002F28E0E2E1F1E0DE01119601900D9274
:102BE0002A95E1F7FC012085241710F44FEF420FDE
:102BF000FC0141876287FE013196E40FF11DE40F6D
:102C0000F11D2081260F2068622FA1DF2896E2E0C7
:102C10000C941C2FFC016681262F246026836C6097
:102C200096CF0895FC012285318545E1349FE00D62
:102C3000F11D1124E20FF11D618B2F5FFC01228732
:102C40002089211102C041E065DF80E090E0089515
:102C5000CF93DF93EC01423018F08D8188608D8333
:102C6000488719861A86222329F0413019F48D816C
:102C700084608D8362E370E080E090E00E9414063F
:102C80006D85CE0100DF68EE73E080E090E00E9489
:102C9000140660E3CE0131DF84E991E10E94380639
:102CA00060E3CE012ADF84E991E10E94380660E307
:102CB000CE0123DF86E990E00E94380660E2CE0173
:102CC0001CDF6D816062CE0142DF84E08E83CE0125
:102CD000A1DFCE013FDF82E08F8366E0CE0137DFE8
:102CE000CE016ADFDF91CF910895CF93DF93EC019E
:102CF0000E94C22C1D8220E04C856B85CE01A8DF8E
:102D0000DF91CF910895CF93DF93EC01EEDF1F8623
:102D10001E86DF91CF910895CF93DF93EC0181E17F
:102D200093E00E94B42C9F878E87DF91CF91089506
:102D3000CF93DF93EC016E857F8581E193E00E9464
:102D4000A42CCD9718F0CE01B6DE02C0CE01B8DEBD
:102D5000DF91CF910895CF93DF939C0175E1679F39
:102D6000200D311D11242F5E3F4FA0E0FC01638533
:102D7000A61778F46A2F70E0F901E60FF71FE081DB
:102D8000EA01C60FD71FEF3D09F4E0EBE883AF5F20
:102D9000EDCFFA01E60FF11D1082DF91CF9108957A
:102DA000CF93DF93EC019A858B85981728F460E226
:102DB000CE010E947905F7CFDF91CF910895A9E068
:102DC000B0E0E5EEF6E10C94F52ECB8CDC8C84E4DF
:102DD00018D6698D80EC91E074D76A8D8AEB91E00A
:102DE0000E940F208EEA91E09F938F93E5D58E018C
:102DF000035E1F4F0F900F90712C85EBE82E81E042
:102E0000F82E90EEA92E90E0B92EF601E70DF11DF7
:102E10008081882309F456C0863679F178F48436A7
:102E200009F042C0480182E0880E911CF8018181BE
:102E30008F9380818F93BF92AF9230C08337A1F080
:102E4000843791F54801F2E08F0E911CF801408122
:102E50005181662757FD6095762F0CE021E0CE0169
:102E600001960E94EA2A16C04801F2E08F0E911CDA
:102E7000F80181818F9380810EC04801F2E08F0EAE
:102E8000911CF801608171812CE043E0CE01019634
:102E90000E94432A9F938F93FF92EF928DD50F90BC
:102EA0000F900F900F9084017394F601E70DF11DC0
:102EB0008081882309F4A9CF6CE28FE592E00E941B
:102EC0007905A3CF6DE58FE592E00E947905B5D530
:102ED0002996EDE00C94112F0C94000008950E94A7
:102EE00043060E948507C0EBD4E00E94F8072097B4
:102EF000E1F30E94B004F9CF1F920F920FB60F9228
:102F000011240F900FBE0F901F90189508950E94E6
:102F10008C2246ED50E0682F80E03FCA089541E3DF
:102F200052E060E087E039CA0895A4E0B0E0EBE940
:102F3000F7E10C94002F82E6898386E68A8380E796
:102F40008B838FE68C830E948C228C0F9D1F60E008
:102F5000FC0181810E94C2252496E2E00C941C2F82
:102F60006F927F929F92AF92BF92CF92DF92EF9239
:102F7000FF920F931F93CF93DF931F92CDB7DEB7CE
:102F80007C018B015A01690181E193E00E94B42C1C
:102F90003C01912CB30181E193E00E94A42C0A979B
:102FA00060F50E949422882341F081E193E00E9421
:102FB000B42C3C01F701099502C0911004C0F8013E
:102FC0000995912C05C0F0E89F1202C0F501099502
:102FD00080912C04882349F010922C048983F801F5
:102FE0000995F6010995898109C0939463E070E021
:102FF00080E193E00E94BD2CCDCF80E00F90DF9167
:10300000CF911F910F91FF90EF90DF90CF90BF90E5
:10301000AF909F907F906F90089542E050E060E005
:1030200070E080E090E00E947C2220E039E147E8F7
:1030300057E16CED71E186E897E192CF0895CF9367
:10304000C091A4038C2F8C7FFED9E7DF8C2FFBD996
:10305000CF910895CF93C0915A046C2F84E192E0F0
:103060000E940A0843E050E060E070E090E00E94B7
:103070007C222AE139E14FE857E168E372E185E912
:1030800097E16EDF811104C060E08C2F0E94C225A1
:10309000CF910895A9E0B0E0E0E5F8E10C94F02EBE
:1030A0001B016A015901FC0109952C018115F0E809
:1030B0009F0711F07C0103C0E12C88ECF82E609191
:1030C000660470916704882777FD8095982F0E9489
:1030D0002B2B3C016091640470916504882777FD77
:1030E0008095982F0E942B2B4C01B201882777FDE9
:1030F0008095982F0E942B2BA301B4010E947C2263
:1031000081E193E00E94B42C4C01712CB40181E167
:1031100093E00E94A42C0A9708F04EC00E949422CB
:10312000882399F181E193E00E94B42C4C010E9424
:103130008C220E945B2B7C01AC01602F8CE0DFD8DD
:1031400080912C04882309F310922C04C701F1010B
:103150000995A701662757FD6095762F09E021E0C4
:10316000CE0101960E94EA2A9F938F93DF92CF921D
:1031700084ED91E09F938F93F50109950F900F9047
:103180000F900F900F900F9017C0711005C0A701FE
:10319000602F8CE0B4D808C0F0E87F1205C046ED7F
:1031A00050E0602F8CE0F9D8739463E070E080E128
:1031B00093E00E94BD2CAACF2996E2E10C940C2F3B
:1031C0000F931F9302E010E02DE93FE14DEC51E039
:1031D00067E278E288E396E25DDF1F910F91089540
:1031E0000F931F9301E010E020E43FE148EC51E031
:1031F00068EF77E281E296E24DDF1F910F9108952B
:103200000E948C228130910539F08230910559F06D
:10321000892B79F41FCF089560E082E60E94C225D1
:1032200027D9DECF089560E086E60E94C22520D926
:10323000C7CF089580915A04823611F4D1CF0895F2
:10324000863611F4BDCF0895803719F480E192E0FD
:1032500004C08F3639F48FEE91E09F938F9310D690
:103260000F900F900895FF920F931F93CF93DF93CA
:10327000FC010081C181D281F8948981F02EF09403
:103280008F21898378941DE7115029F182E090E025
:103290000E94380688818023B9F3F8948A818F21AF
:1032A0008A838981802B8983789480EE91E00E94C3
:1032B0003806F89489818F21898386E490E00E9402
:1032C00038068881802311E009F010E078948AE9BB
:1032D00091E00E943806812FCDB7DEB7E5E00C946F
:1032E000192F0F931F93CF93DF93FC011081C1819E
:1032F000D281662319F007E38AE002C005E081E489
:10330000F8942A81912F909592239A839981912BF9
:10331000998390E00E9438069A81912B9A83789441
:10332000802F90E00E943806DF91CF911F910F917E
:1033300008950F931F93CF93DF93FC011081C181F8
:10334000D281F8948981812B89838A81012F00950C
:1033500080238A8383E090E00E943806898180235D
:1033600089838AE090E00E943806C881789485E3DA
:1033700090E00E9438061C2381E009F480E0DF9190
:10338000CF911F910F910895EF92FF920F931F938A
:10339000CF93DF938C01E62EC8E0D0E0FF24F394B6
:1033A00061E09F2D9E2109F460E0C8019ADFFF0CC7
:1033B00021972097A9F7CDB7DEB7E6E00C94182F38
:1033C000EF92FF920F931F93CF93DF938C01C8E08E
:1033D000D0E0F12CEE24E394C801ABDF8111FE288C
:1033E000EE0C21972097C1F78F2DCDB7DEB7E6E021
:1033F0000C94182FFF920F931F93CF93DF93EC0140
:103400008B0140E065E5C0DF88E0F82EF8016191AE
:103410008F0140E0CE01B8DFFA94C1F7CDB7DEB737
:10342000E5E00C94192FFC0114861686158627E01A
:1034300030E0DF01A20FB31F14961C922115310555
:1034400019F021503109F5CF08951F93CF93DF93E1
:10345000EC01162F6B8360E0812F0E947E06612FA6
:1034600070E0FB01E057FF4FE491E883FB01EC556E
:10347000FF4FE491F0E0EE0FFF1FE854FF4F8591FE
:1034800094919A838983CE01CEDFDF91CF911F91F2
:103490000895A1E0B0E0EFE4FAE10C94F82E5C01AD
:1034A0008B01FC018685811163C0C501DCDE8111C1
:1034B00005C0F50114861686158674C040E060EFDD
:1034C000C50162DFEE24E394D12CC12CFF24F394D8
:1034D000C5012FDF682FC50169832BDF698161304A
:1034E00019F48130C1F43AC02D2D30E068131FC0AB
:1034F000F5018485F81630F4E20FF31F84818E21E4
:1035000051F402C0F81639F060E0F8E0FF1570F0F1
:10351000F501F5860BC0D501AD0DB11D14968C914A
:1035200014978E2914968C9361E00CC0CF2CD50192
:10353000A20FB31F14968C9114979E2D90958923FA
:1035400014968C93C501CDDEF394EE0C19F4D3944C
:10355000EE24E394F7E0FD1508F0BACF80E48F1570
:1035600038F4F501C486C11017C081E0868714C005
:10357000F50114861686158680E0F80120E030E01B
:10358000D501A20FB31F14969C9191932F5F3F4FCB
:1035900028303105A9F706C0F5018481882341F35D
:1035A00081E0EBCF2196EAE00C94142FFC0180E03F
:1035B0005CE8615088F0419198E0742F7827282FBB
:1035C00030E035952795822F70FF02C0852F822726
:1035D0004695915091F7EDCF0895FC0187850895A8
:1035E000CF93DF93EC0180E292E0998388838C8112
:1035F0009D810E94960586E991E099838883DF91F9
:10360000CF910895CF93DF93EC01EADFCE010E94C2
:103610009605DF91CF910895A1E1B0E0E2E1FBE1F1
:103620000C94FB2E7C01D62EDC011F968C91861704
:1036300079F18E010F5F1F4FA80168E0C701069660
:103640000E949C0BF701D7860280F381E02DDD20DC
:1036500061F01F930F9383811F928F9389E192E012
:103660009F938F931F9289E40CC01F930F938381C4
:103670001F928F9389E192E09F938F9382E08F93C3
:1036800087E58F939CDB0FB6F894DEBF0FBECDBFEE
:103690006196E7E00C94172F1F93CF93DF93EC0113
:1036A000BC016A5F7F4F8C819D810E947809182F31
:1036B000682FCE01B1DF812FDF91CF911F91089547
:1036C000CF93DF93EC01BC016A5F7F4F8C819D81BA
:1036D0000E94A309BC01611580E8780731F460E01D
:1036E000CE019ADF80E090E815C08E85680F711DCD
:1036F00087FD7A957350882777FD8095982F2FEF57
:1037000033E040E05CEF0E94762B25E0880F991FA4
:103710002A95E1F7DF91CF910895A1E1B0E0E3E9C7
:10372000FBE10C94F82E8C015C0126E0A20EB11C8A
:10373000CE0101967C01AC0168E0C5010E949C0BA2
:10374000F80184819581892B01F582E090E00E9447
:1037500093056C01F801628173810E949608F8015B
:10376000D582C482C114D10481F4FF92EF928AE120
:1037700092E09F938F931F9285E48F9320DB0F90AD
:103780000F900F900F900F900F90F801848195810A
:103790000097C1F0B5010E943F09882399F0C80144
:1037A0007BDF882379F06EEE72E080E193E00E9487
:1037B000BD2CC80185DF8115904821F0C8016CDF60
:1037C000F82E01C0F12C6F2DC80126DF8F2D6196D8
:1037D000EAE00C94142F0F931F93CF93DF93EC0127
:1037E0008F85882339F0CE016BDF8C01CE0154DF49
:1037F000C80102C080E090E8DF91CF911F910F9146
:103800000895FC018081809363040E94DC110C9474
:1038100055130895CF93DF93EB010E94512B9983A9
:1038200088830E945513DF91CF910895CF93DF9342
:10383000EB010E944E30798368830E945513DF911B
:10384000CF910895CF93DF93EB010E944E3021E09A
:10385000672B682B692B09F420E028830E945513FD
:10386000DF91CF9108950F931F93CF93DF93EB01D7
:10387000162F13700E944E30FE01FF27EE0FFF1F20
:10388000E35DFD4F0190F081E02D6083C33028F0AF
:10389000209198043091990404C0209196043091AD
:1038A0009704113059F030F0123059F4C9010E94D8
:1038B0009B2C07C0C9010E94922C03C0C9010E9421
:1038C000962C0E945513DF91CF911F910F9108956F
:1038D000CF93DF93EB010E944F2A798368830E9484
:1038E0005513DF91CF910895CF93DF93EB010E94A1
:1038F000562B998388830E945513DF91CF910895A9
:10390000A6E0B0E0E6E8FCE10C94FA2E7C016B0145
:10391000DF926F93FF928F938AE292E09F938F934F
:103920008CE08F9389E48F934ADA02EB14E00FB6B0
:10393000F894DEBF0FBECDBF46E050E0B801CE0127
:1039400001960E94743069817A81C7010E947D309E
:10395000892B39F46B817C81ED81FE81C60109954B
:1039600012C00A5F1F4F95E00036190729F789E654
:1039700091E09F938F931F9287E58F9320DA0F90AA
:103980000F900F900F902696E8E00C94162F8091E0
:10399000100190911101DC01ED91FC910084F18501
:1039A000E02D0995089540E051EE60E070E08FE56C
:1039B00092E00C94F2040895A0E0B0E0E2EEFCE1A5
:1039C0000C94002FFE013596419151919F0160E8C2
:1039D00070E088EA93E00E94DB308FE592E00E947D
:1039E0007505882331F068EA73E08FE592E00E9464
:1039F0007705E2E00C941C2F8FE592E00C94810592
:103A00000895682F8FE592E00E9479056AE38FE5BB
:103A100092E00E94790581E0809328040895F1DF07
:103A20006BE58FE592E00C94790508956DE58FE5DF
:103A300092E00E947905E0CF08956DE78FE592E06E
:103A40000E947905D9CF0895A6E0B0E0EAE2FDE151
:103A50000C94FD2EF42E6D837E83D3DF6D817E81E9
:103A6000FF20C9F08B010C5F1F4F44E050E0CE01F6
:103A700001960E947430EC81F0E0EE0FFF1FE75CCE
:103A8000FD4F0190F081E02D6B8189819A8109952C
:103A9000FA94B801E5CFD1DF2696E5E00C94192F12
:103AA00083E694E09093A7038093A60348E16CE833
:103AB00075E083E4C9CF089582E494E09093A7036E
:103AC0008093A6034BE060E675E086E5BDCF0895E0
:103AD000CF93DF93EC0180912804882311F06BE7EA
:103AE00001C06CE28FE592E00E94790510922804F3
:103AF00062E28FE592E00E947905DF93CF935CDF6D
:103B000062E28FE592E00E9479056AE38FE592E038
:103B10000E9479050F900F90DF91CF910895CF9378
:103B2000DF93EB01D5DF209719F087E492E002C024
:103B300082E492E0DF93CF939F938F933DDF0F90CA
:103B40000F900F900F90DF91CF910895EF92FF9219
:103B50000F93CF93DF93CDB7DEB729970FB6F894C5
:103B6000DEBF0FBECDBF7C01AB01662757FD609560
:103B7000762F09E022E0CE0101960E94EA2AC701D1
:103B8000A7DFBE016F5F7F4F8FE592E00E94770550
:103B900029960FB6F894DEBF0FBECDBFDF91CF914F
:103BA0000F91FF90EF900895A2E0B0E0EAEDFDE103
:103BB0000C94002F69837A838BDF69817A818FE58A
:103BC00092E00E9477052296E2E00C941C2FEF927F
:103BD000FF920F93CF93DF93CDB7DEB72C970FB63D
:103BE000F894DEBF0FBECDBF7C01E091A603F0913B
:103BF000A703E60FF11D40815181662757FD6095AF
:103C0000762F0CE021E0CE0101960E94EA2ABC0149
:103C1000C701CADF2C960FB6F894DEBF0FBECDBF2A
:103C2000DF91CF910F91FF90EF900895ACE0B0E05D
:103C3000ECE1FEE10C94FE2E8C01E091A603F091E4
:103C4000A703E60FF11D608171812CE043E0CE01F6
:103C500001960E94432ABC01C801A6DF2C96E4E02D
:103C60000C941A2FEF92FF920F93CF93DF93CDB75F
:103C7000DEB72C970FB6F894DEBF0FBECDBF7C0128
:103C8000E091A603F091A703E60FF11D4081518159
:103C9000662757FD6095762F0CE023E0CE01019654
:103CA0000E94112BBC01C7017FDF2C960FB6F89440
:103CB000DEBF0FBECDBFDF91CF910F91FF90EF9090
:103CC0000895CF93C62F04DF62E28FE592E00E9451
:103CD00079056C2F8FE592E00E94790562E28FE50D
:103CE00092E00E947905CF9108950F93CF93DF93CF
:103CF000CDB7DEB72C970FB6F894DEBF0FBECDBFA1
:103D000083E57FDE60915A048DEA94E0DADF40912A
:103D10005B0450915C04662757FD6095762F0CE09C
:103D200022E0CE0101960E94EA2ABC0185EA94E0D5
:103D30003BDF40915D0450915E04662757FD60951E
:103D4000762F22E0CE0101960E94EA2ABC018BE97F
:103D500094E02ADF60915F04709160042CE043E0FE
:103D6000CE0101960E94432ABC0183E994E01CDF46
:103D700060916104709162042CE043E0CE010196F1
:103D80000E94432ABC018BE894E00EDF56DE2C969D
:103D90000FB6F894DEBF0FBECDBFDF91CF910F916C
:103DA0000895E091A603F091A703E60FF11D60814D
:103DB00088CF0895CF93DF93EB018ADEDF93CF9313
:103DC0008FE392E09F938F93F7DD0F900F900F900A
:103DD0000F90DF91CF910895E091A603F091A70392
:103DE000E60FF11D60817181E5CF08950F931F9358
:103DF000CF93DF938C01EB0184E503DE10D7BC0188
:103E00008AE892E0A3DE1DD7BC0182E892E09EDE44
:103E1000B8018AE792E083DE19D7BC018FE692E011
:103E200095DE26D7BC0185E692E090DEBE018BE5EB
:103E300092E075DEACDD8091100190911101DC0102
:103E4000ED91FC910480F581E02D099581110CC064
:103E50006091410470E08CE492E0ACDFEEDDDF9134
:103E6000CF911F910F91089592DDBC0182E592E000
:103E70006DDEEECF60E070E080E090E0B7CF0895B7
:103E8000A0E8B0E0E6E4FFE10C94002FFE01EB5760
:103E9000FF4F419151919F0160E870E0CE01019682
:103EA0000E94DB3060E070E0CE0101969FDFC058D9
:103EB000DF4FE2E00C941C2FA2E0B0E0E2E6FFE16D
:103EC0000C94FE2E8C010E94512B20915A04203715
:103ED00099F420915B0430915C04AC01421B530BBC
:103EE0009A0157FF03C031952195310925363105D7
:103EF000F4F02FE033E002C026E233E02115310573
:103F0000B1F03F932F931F930F9320E033E03F9343
:103F10002F9324EE32E03F932F9389839A83B0DF6F
:103F20000FB6F894DEBF0FBECDBF9A8189810E9483
:103F3000F8272296E4E00C941A2FA0E8B0E0E3EA18
:103F4000FFE10C94002FFE01EB57FF4F419151917F
:103F50009F0160E870E0CE0101960E94DB30BE0157
:103F60006F5F7F4F80E090E041DFC058DF4FE2E0BD
:103F70000C941C2FCF93DF93EC0160E0888102D674
:103F800086E293E09F938F93DF93CF938AE093E051
:103F90009F938F9384EE92E09F938F93CEDF8DB7A4
:103FA0009EB708960FB6F8949EBF0FBE8DBFDF91E7
:103FB000CF910895A2E0B0E0E0EEFFE10C94FE2E78
:103FC0008C010E94512B20915A042636C1F426E21E
:103FD00033E03F932F931F930F9324EF32E03F93EF
:103FE0002F9324EE32E03F932F9389839A83A5DFAA
:103FF0000FB6F894DEBF0FBECDBF9A8189810E94B3
:1040000027282296E4E00C941A2FE091A603F09161
:10401000A703E60FF11D608170E0CCCE089570E03B
:10402000C9CE08951F93CF93DF931AE0C0E9D1E082
:104030008FE592E00E947803892B41F4CE0101972D
:10404000F1F71150A9F78FEF9FEF04C08FE592E0D1
:104050000E94A103DF91CF911F9108951F93CF93E9
:10406000DF93EC01188210E0DDDF9C011D31B9F017
:104070008D379105A1F02F3F8FEF380781F02C325B
:10408000310579F02A33310561F0C9018D7F8097C0
:1040900059F3FE01E10FF11D20831F5FE5CF80E0A2
:1040A00001C081E0C10FD11D1882DF91CF911F9116
:1040B0000895ACE3B0E0EFE5F0E20C94FB2E8C0148
:1040C0007B011F8E1982AEDF8B379105C9F09F935C
:1040D0008F938BE591E09F938F938AE08F9385E494
:1040E0008F930E94DF160F900F900F900F900F90FC
:1040F0000F901CC0D12C898181110CC0DD20B1F042
:10410000CE014F96ABDF8823A9F3CE010196A6DF3F
:10411000D82EF1CF8F8D882389F3A701BE016F5F61
:104120007F4FCE014F96F8010995E8CFEC96E7E076
:104130000C94172F60E070E080E89CE1BADFD5DDD9
:10414000AFCC0895A5E1B0E0E8EAF0E20C94F02EDF
:104150002BE5422E21E0522E33243394CE010196DA
:104160007C0133E9C32E32E0D32E4BEDA42E42E086
:10417000B42E55ED852E52E0952E68E9662E62E04C
:10418000762E09E611E08FE592E00E94780318167A
:1041900019060CF0F0C08FE592E00E94A103992768
:1041A0008136910509F480C0CCF58334910509F47A
:1041B00080C094F48D30910531F324F48A30910558
:1041C00011F3C9C080329105F1F28134910509F0F3
:1041D000C2C030920F03D7CF8235910509F4B8C021
:1041E00084F48534910509F0B6C00E941A131F9318
:1041F0000F938FE08F9389E48F930E94DF16A5D1F0
:104200006AC08335910509F45CC08535910509F0D4
:10421000A2C08FE592E00E94270EB5CF8C369105A3
:1042200009F460C0ACF48436910509F482C034F41A
:104230008336910509F08FC033DCA5CF8836910510
:1042400009F47EC08A36910509F085C073DF9BCFE3
:104250008337910509F444C0F4F48E36910509F0D2
:104260007AC01F923F921F9293E79F931F921F92D3
:104270001F9282E08F93BF92AF921F921F929F92E4
:104280008F927F926F9298DBB7DB0FB6F894DEBF08
:104290000FBECDBF78CF8437910549F086379105A1
:1042A00009F059C009DC6FCF10920F036CCFE2DD2B
:1042B0006ACF5ED40E94DC11F3DB1F930F938DE075
:1042C00005C07FD412DD1F930F938EE08F9389E496
:1042D0008F930E94DF160F900F900F900F9053CF87
:1042E00004DD51CF8CE48DDB6BE58FE592E00E941D
:1042F0007905212CA701622D8FE393E00E94AB1674
:10430000FF92EF92DF92CF9257DB0F900F900F90BA
:104310000F9093E0291611F06CE201C06DE58FE576
:1043200092E00E947905239484E02812E3CF64DBB5
:104330002ACF84E674DB8FE592E00E94A21006C0CB
:1043400088E66DDB8FE592E00E94E30F6FDB1BCF09
:104350000E946C1718CF9F938F935F924F923F925A
:1043600097E59F930E94DF160F900F900F900F908C
:104370000F900F9008CF6596E2E10C940C2FE3B1FB
:1043800023B1269531E02327822F817090E0880F9A
:10439000991FE170E327E82B90918704FF27E7FD41
:1043A000F09580912B048F70992341F094E0899FC0
:1043B000E00DF11D1124E85FF94F07C094E0899FDB
:1043C000E00DF11D1124E451FA4FE491E0932B0428
:1043D00080912B04807321F120912D0430912E04C3
:1043E000803119F42F5F3F4F02C021503109809175
:1043F00031049091320440912F045091300482177F
:10440000930714F4CA0104C0241735070CF0C9013E
:1044100090932E0480932D048FE393E00C948C16DC
:1044200008951F920F920FB60F9211242F933F936E
:104430004F935F936F937F938F939F93AF93BF93AC
:10444000EF93FF939CDFFF91EF91BF91AF919F910D
:104450008F917F916F915F914F913F912F910F902D
:104460000FBE0F901F90189581E080932C048FE36E
:1044700093E00C948C1608951F920F920FB60F9232
:1044800011242F933F934F935F936F937F938F9359
:104490009F93AF93BF93EF93FF934F9BE5DFFF9104
:1044A000EF91BF91AF919F918F917F916F915F91AC
:1044B0004F913F912F910F900FBE0F901F90189525
:1044C00062E088E00E947E0662E089E00E947E064B
:1044D00062E087E00E947E06E8E6F0E08081856089
:1044E0008083EBE6F0E0808183608083EDE6F0E09E
:1044F00080818068808308952FB7F89490932E046C
:1045000080932D047093300460932F0450933204F1
:10451000409331042FBF08952FB7F89480912D0454
:1045200090912E042FBF0895F7DF20912904309138
:104530002A048217930731F090932A048093290468
:1045400081E0089580912C0408950E94AA1381119E
:1045500012C037D30DD30E94A40C89E691E09F933B
:104560008F9383E08F9387E58F930E94DF160F90E0
:104570000F900F900F900895FC01808508952EE212
:1045800031E0FC013183208308952EE231E0FC010B
:10459000318320830C94960508951F93CF93DF9366
:1045A000EC01162F68878E819F81DC01ED91FC91D3
:1045B0000190F081E02D0995112331F081E193E024
:1045C0000E94B42C9B838A83DF91CF911F91089521
:1045D000DC01ED91FC910480F581E02D09950895B1
:1045E0006817790768F4861B970B20913404309183
:1045F00035042817390720F4909335048093340448
:1046000008951092400410923F040895CF93DF93D1
:10461000EC010E94F42B88819981DADF811103C0BB
:10462000CE010E94A82BDF91CF910895809198042C
:1046300090919904EBDF8091960490919704E6DFC6
:104640008091100190911101DC01ED91FC910084A9
:10465000F185E02D09958115904859F4809110015C
:1046600090911101DC01ED91FC910680F781E02D24
:1046700009950895CF93DF93109241048FE68093BC
:104680005A0460E08AE894E088DF80919804909171
:104690009904892B21F582EF90E00E949305EC01AB
:1046A00002960E94DF13CE01805B9F4F0E94DF13B2
:1046B000CE0182569F4F0E94DF13FE01E451FF4F4F
:1046C0002FEF208387E393E09983888335962083B7
:1046D000D0939904C0939804CE010E94A82B809196
:1046E000960490919704892B21F582EF90E00E9427
:1046F0009305EC0102960E94DF13CE01805B9F4F71
:104700000E94DF13CE0182569F4F0E94DF13FE01ED
:10471000E451FF4F2FEF208387E393E09983888351
:1047200035962083D0939704C0939604CE010E94BF
:10473000A82B7CDF66DF10923904109238041092A7
:10474000370410923604DF91CF910895A0E0B0E0D5
:10475000ECEAF3E20C94FA2E80915A04823661F06E
:10476000803751F0863609F04DC180E090E8909393
:104770005C0480935B0446C120915B0430915C042F
:10478000211580E8380729F430935E0420935D04F6
:1047900039C18091980490919904FC01EC57FF4F26
:1047A0004485558566857785261B370B30934304F2
:1047B000209342040E94832C9093490480934804E0
:1047C00080919604909197040E947D2CDC01809149
:1047D000330420914204309143048C3321F08F5FE5
:1047E0008093330489C010923304C901E0914104DD
:1047F00040914404509145046091460470914704EF
:10480000E11168C0F90137FF04C0EE27FF27E21B62
:10481000F30BC0916E04D0916F04EC17FD070CF000
:1048200047C0DD24D394121613060CF0D12CE1E01E
:1048300014161506160617060CF0E0E0DE1234C05A
:10484000E0915D04F0915E04C0916604D09167042C
:10485000EC17FD0714F080E090E0C0916404D09163
:104860006504CE17DF0714F080E090E000915B0450
:1048700010915C04C0918804D09189047F01E01AF2
:10488000F10AEC16FD0614F080E090E00E1B1F0B01
:104890000C171D0714F080E090E0D11017C0FC5FEA
:1048A000EA17FB07CCF416C0C901880F991F14C082
:1048B0006A017B0183E0F594E794D794C7948A95C5
:1048C000D1F7882799278C199D0906C0F450AE1797
:1048D000BF0714F480E090E0AA2797FDA095BA2FB7
:1048E000840F951FA61FB71F80934404909345041F
:1048F000A0934604B0934704B90180916804909155
:1049000069041AD790934B0480934A04409144045D
:1049100050914504609146047091470480916A0467
:1049200090916B04FCD690934D0480934C0460915D
:1049300048047091490480916C0490916D04FCD6F8
:1049400090934F0480934E0420915B0430915C045B
:104950006901EE24D7FCE094FE2C40914A0450916A
:104960004B04662757FD6095762FC40ED51EE61EB4
:10497000F71E40914C0450914D04662757FD6095F9
:10498000762FC40ED51EE61EF71EAA2797FDA0950A
:10499000BA2FC80ED91EEA1EFB1E009164041091A6
:1049A00065048091880490918904A801480F591FDB
:1049B000421753071CF48901081B190BC0916604A8
:1049C000D0916704AE01481B590B241735071CF41E
:1049D000E901C80FD91FC701B6014ED6801791074C
:1049E00054F0C701B60148D6C817D90734F0C7013B
:1049F000B60142D603C0C80101C0CE0190935E0447
:104A000080935D04CDB7DEB7E8E00C94162FCF930A
:104A1000DF93EC0177FF03C0719561957109F5E0B3
:104A200075956795FA95E1F7882777FD8095982F1A
:104A30002AE930E040E050E059D6688179818A590E
:104A40009D4F7AD68931910514F489E190E09983DC
:104A500088830E945013DF91CF910895CF93DF9305
:104A6000EC0177FF03C0719561957109A5E075951B
:104A70006795AA95E1F7882777FD8095982F25E51A
:104A800030E040E050E032D6688179812AEA31E0B6
:104A9000A901481B590BCA014FD6998388830E94EC
:104AA0005013DF91CF9108956091360470913704CF
:104AB00081E193E049C70895609138047091390409
:104AC00081E193E041C7089560913A0470913B04FD
:104AD00081E193E039C7089547E250E0BC0183E6E5
:104AE00094E00C94DF32089549E050E0BC018AE57F
:104AF00094E00E94DF3280915B0490915C0490937B
:104B00003D0480933C040895609180048091960454
:104B10009091970407D760918104809196049091B9
:104B2000970404D760918204809196049091970431
:104B300002D7609183048091980490919904F2D6F1
:104B4000609184048091980490919904EFD66091CB
:104B500085048091980490919904EDC6089547E2E8
:104B600050E0BC0183E694E00E94C732CDCF0895A7
:104B700047E250E061E476E083E694E00E9474301E
:104B8000C3CF089590915A04891305C090914104B0
:104B90009550933018F41092410402C0662381F0BE
:104BA00080935A048F3651F480E090E890935C042F
:104BB00080935B0490935E0480935D040C94501387
:104BC000089560E08FE6DEDF80E098EC90935C046F
:104BD00080935B0490935E0480935D0486E690E08E
:104BE0009093600480935F0480E09AE09093620465
:104BF00080936104089549E050E0BC018AE594E0A7
:104C00000E94C73280915B0490915C0490933D04B4
:104C100080933C0461E080915A04B4CF0895E09100
:104C20009804F091990480819181D2DC882331F03D
:104C3000809198049091990460C6089580E090E86E
:104C4000089580915B0490915C040895E09196042E
:104C5000F091970480819181BBDC882331F08091B1
:104C600096049091970449C6089580E090E80895CD
:104C700080915D0490915E0408959091410481E0DB
:104C8000943021F0983011F080E008950895A4E068
:104C9000B0E0EDE4F6E20C94FE2E4817590708F454
:104CA000CA019C01DB010E94DA2E20E13EE040E0D7
:104CB00050E00E94A32E890129833A834B835C83B1
:104CC000DCDF29813A81882321F000271127021B8C
:104CD000130B80919604909197040FD6800F911F2B
:104CE00090935104809350042496E4E00C941A2F7E
:104CF000A0E0B0E0EEE7F6E20C94F52E809106011C
:104D000090910701DC01ED91FC910190F081E02D83
:104D1000099590913E048917A1F080933E04882361
:104D200019F08AE396E002C083E396E09F938F93A5
:104D300084E296E09F938F9300D90F900F900F908D
:104D40000F9080915A048F3631F481E080934104B2
:104D50007724739401C0712C80915D0490915E045E
:104D60008115904809F43BC1E0919604F0919704B5
:104D7000808191812DDC882309F431C1E091980470
:104D8000F09199048081918123DC811108C0809188
:104D90005A04823609F423C1803709F420C194DE15
:104DA000EC0182DE5C0188DE6C01809196049091BA
:104DB0009704A3D54C0180919804909199049DD5B6
:104DC0007C0181E193E0D0D50091410410E00A30EC
:104DD000110508F009C1F801EC5CFF4FD0C79093B2
:104DE0003B0480933A047110FFC010923504109276
:104DF000340420915D0430915E04809170049091A0
:104E00007104820F931F881599055CF5B60188E53A
:104E100092E0E6DB80915A04863621F4B50188E5FC
:104E200092E00CC080915B0490915C040F968E150B
:104E30009F050CF0CDC0B5018CE291E0D1DB8091F3
:104E40000C0190910D018953934009F447C0809162
:104E5000340490913504892B11F085E03AC084E048
:104E600038C08091720490917304820F931F88164A
:104E700099060CF0ADC0B50188E592E0B1DBB60152
:104E80008CE291E0ADDB80915A04863649F0809146
:104E90005B0490915C040F97E816F9060CF098C03B
:104EA00080910E0190910F018953934059F48091A4
:104EB0008604882399F080910A0190910B0189530F
:104EC000934061F08091340490913504892B21F056
:104ED00086E08093410402C083E0FBCF80914104CF
:104EE0008350823008F080C080913F04811105C05A
:104EF00080914004882309F477C087E06DC021E0E9
:104F000020933F04909337048093360460916104AA
:104F100070916204AE0180917E0490917F04B7DEAF
:104F200084E0809341042091500430915104809199
:104F30005D0490915E048217930774F480915A0483
:104F4000863609F451C080915B0490915C044097CF
:104F5000E816F9060CF048C0C53BD10528F030939F
:104F600053042093520434C088E036C021E02093DB
:104F70004004909339048093380460915F047091E9
:104F80006004AE0180917C0490917D0480DE83E01A
:104F900080934104209150043091510480915D042C
:104FA00090915E042817390764F480915A0486367C
:104FB000D9F080915B0490915C0440968E159F051A
:104FC0009CF4C53BD10538F030935504209354042C
:104FD0001092410409C089E08093410405C01092F9
:104FE000410477247394DBCECDB7DEB7EDE019C76B
:104FF000CF93DF93EC0120915B0430915C0490939C
:105000005C0480935B04281B390B37FF03C0319588
:1050100021953109213031400CF0F3DA97DB68DE5D
:1050200080915A04803771F420913C0430913D0402
:105030002C1B3D0B37FF03C03195219531092138D9
:10504000310514F00E945013DF91CF910895909391
:105050005E0480935D04D5DA79DB4ADE0C9450134C
:1050600008959091410481E0933021F0993011F03E
:1050700080E008950895CF93DF9380915A04843798
:1050800009F466C060918C0470918D0481E193E015
:105090005BD420918E0430918F048217930758F0CF
:1050A000E0918A04F0918B040190F081E02D60E0A2
:1050B0008AE894E00995D5DFC82FDFDDD82F8091ED
:1050C0000C0190910D01DC01ED91FC910190F081BA
:1050D000E02D6D2F0995A0910E01B0910F01ED917A
:1050E000FC9111970190F081E02D80918604882336
:1050F00011F060E001C06C2FCD010995A0910A016B
:10510000B0910B01ED91FC9111970190F081E02D90
:1051100080913E04811109C080918604882311F09A
:10512000C11103C06091950401C061E0CD010995F2
:105130008091080190910901DC01ED91FC910190B1
:10514000F081E02DCC2311F061E001C06D2F0995B5
:10515000DF91CF910895A0E0B0E0E0EBF8E24AC61D
:1051600080914004882319F07CDF882349F08091E6
:105170003F04882309F4D8C080DD8111D5C05EC00A
:105180008091960490919704C3D3EC01009154044C
:10519000109155047C01E01AF10AC0905F04D09090
:1051A0006004C11580E8D807B9F08091740490912B
:1051B00075048E159F0524F4B7018FE594E027DC74
:1051C0008091760490917704E816F9065CF5B701B2
:1051D0008FE594E043DC26C06FDC8538934008F40B
:1051E000A3C0809196049091970487D32091540492
:1051F000309155044091760450917704240F351F67
:105200008217930764F4809196049091970475D364
:10521000EC01B7018FE594E021DC23E104C010929A
:10522000400482C021E180915F0490916004D0939A
:105230005904C0935804109240045DC080919604B4
:10524000909197046AD3EC01009152041091530499
:105250007C01E01AF10AC0906104D0906204C1158B
:1052600090E8D907B9F080917A0490917B04E81610
:10527000F90624F4B70181E694E0C9DB8091780453
:10528000909179048E159F055CF5B70181E694E055
:10529000E5DB26C009DC8930974008F445C08091E1
:1052A00096049091970429D320915204309153048D
:1052B0004091780450917904240F351F281739073D
:1052C00064F4809196049091970417D3EC01B70190
:1052D00081E694E0C3DB24E104C010923F0424C0C3
:1052E00022E18091610490916204D0935704C093AD
:1052F000560410923F049F938F93DF92CF921F9397
:105300000F93DF93CF9385E492E09F938F932F9336
:1053100089E48F930E94DF168DB79EB70C960FB667
:10532000F8949EBF0FBE8DBFCDB7DEB7E8E07EC557
:10533000E3E9F4E08AE391E091838083109295049D
:105340008EE492E090938B0480938A0488E592E047
:1053500090938F0480938E04F0939104E0939004D3
:1053600008958EE291E090938B0480938A04909349
:105370009404809393040895A0E0B0E0E1ECF9E296
:105380003FC59E01255F3F4F49855A856F817885CE
:105390008D819E8110D7E2E04FC58F929F92AF9290
:1053A000BF92DF92EF92FF920F931F93CF93DF9301
:1053B000EC01D02E77FD03C080E2888309C08DE226
:1053C000888370956095509541955F4F6F4F7F4FE3
:1053D0004A015B0139E0B594A794979487943A9574
:1053E000D1F77401213039F0223051F008EE13E08A
:1053F000E8E6F6E009C00AE010E0E8E7F6E004C0FD
:1054000004E610E0E0E7F6E09A01AB0131704427D2
:105410005527D801D5D47F5F8F4F9F4F29E09595B1
:105420008795779567952A95D1F76017710730F0C2
:1054300074018FEFE81AF80A60E070E07F936F93D1
:10544000FF92EF92FF93EF938D2D90E001979F9342
:105450008F93CE0101969F938F938EDF8DB79EB76A
:105460000A960FB6F8949EBF0FBE8DBFCE01DF9196
:10547000CF911F910F91FF90EF90DF90BF90AF9071
:105480009F908F9008950F93342FAB01662757FD9F
:105490006095762F022F232F80DF0F910895A0E0D3
:1054A000B0E0E4E5FAE2A1C4EC0188818D3221F498
:1054B00021967724739401C0712C6EE270E0CE01C6
:1054C00035D68C01CE01EAD56B017C0101151105A1
:1054D00031F1E8012196CE0131D68C01CE01DED525
:1054E0009B01AC0179E0220F331F441F551F7A95B1
:1054F000D1F7C0E0D0E0EAE08E2E912CA12CB12CA7
:10550000802F8C1B181674F4CA01B9016B5F7F4F92
:105510008F4F9F4FA501940116D42196F1CF20E023
:1055200030E0A90169E0CC0CDD1CEE1CFF1C6A9583
:10553000D1F7C20ED31EE41EF51E772041F0662778
:105540007727CB016C197D098E099F0902C0C7011D
:10555000B601CDB7DEB7EDE064C4CF93C42F209180
:105560006304263499F4A5E0B0E09B01AC0128D493
:1055700029E030E040E050E0E6D3CA01B901CC2395
:1055800051F06E5873488109910905C0442319F000
:10559000705681099109CF910895209163042634B2
:1055A00099F4442321F062577C478F4F9F4FA9E025
:1055B000B0E09B01AC0104D425E030E040E050E0D5
:1055C000C2D3CA01B9010895442319F0705A8F4F0C
:1055D0009F4F0895EF92FF920F93CF93DF931F9207
:1055E000CDB7DEB77C01CB01BA01611530E8730796
:1055F0003FEF8307930731F460E876E0C70186D573
:10560000C70108C041E02983C8DFAB01BC01298183
:10561000C701C3DE0F90DF91CF910F91FF90EF9004
:105620000895EF92FF920F93CF93DF931F92CDB720
:10563000DEB77C01CB01BA0140E02983AEDFAB01CC
:10564000BC012981C701A9DE0F90DF91CF910F9195
:10565000FF90EF90089541E0A0DF9B01AC01AAE02C
:10566000B0E0AED37F5F8F4F9F4F20E032E040E04D
:1056700050E069D3C9010895613020E872072FEF27
:105680008207920744F0611520E8720781059105B1
:105690002CF4CB01089581E090E808958FEF9FE707
:1056A0000895FDDE41E059DFE7CF0895F8DE40E0E0
:1056B00054DFE2CF0895BC01882777FD8095982FAD
:1056C000F9E0660F771F881F991FFA95D1F76B5F76
:1056D0007F4F8F4F9F4F2AE030E040E050E033D3C0
:1056E000CA01B90141E039DFC7CF0895A0E0B0E0B9
:1056F000EBE7FBE27FC36B017C01EA018901BCDFC0
:105700008C179D072CF00817190724F0C60103C059
:10571000CE0101C0C801CDB7DEB7E8E087C3DC0128
:105720009A01AB0157D3B9E0959587957795679521
:10573000BA95D1F7A1CF08959C01DB0126D339E0BA
:1057400095958795779567953A95D1F795CF089573
:10575000A0E0B0E0EDEAFBE24DC3EC018881998165
:105760000097F1F1DC01ED91FC910680F781E02DCD
:1057700009958823A9F17E01B1EFEB0EF11CF70129
:1057800080818D3368F188819981DC01ED91FC91F4
:105790000084F185E02D09958C018115B0E89B0707
:1057A000F9F0B801CE0102960E942D146E01F0E5C9
:1057B000CF0ED11CB801C6010E942D1460E070E02C
:1057C000CE0182569F4F0E942D14C6010E942514BF
:1057D000C351DF4F688379838A839B83D7011C92EF
:1057E000CDB7DEB7E8E022C38F929F92AF92BF920F
:1057F000EF92FF920F931F93CF93DF93EC01888179
:105800009981009709F469C0DC01ED91FC91008455
:10581000F185E02D09958C018115B0E89B0709F40D
:105820005CC0BC01CE0102960E941B147E01F0E513
:10583000EF0EF11CB801C7010E941B148E01045128
:105840001F4FD8018C9181508C93843051F4C70143
:105850000E942514FE01E351FF4F60837183828310
:105860009383F801808181113DC0C7010E942514F6
:105870004B015C017E01FDEEEF0EF11CF701808112
:105880009181A281B381A5019401281B390B4A0B98
:105890005B0B4C3151054CF4453EFFEF5F074CF478
:1058A00020E030E045EE5FEF04C020E030E04BE167
:1058B00050E0A0EBB4E084D2AB01BC01CE01825633
:1058C0009F4F0E940314D7018D929D92AD92BC927E
:1058D000139783E0F801808305C0CF50DF4F8881A4
:1058E0008F5F8883DF91CF911F910F91FF90EF9091
:1058F000BF90AF909F908F9008958E5B9F4FFC015B
:1059000082819381089582569F4F0C9425140895A7
:105910008C579F4F0C94F71408958C579F4F0C94FD
:105920001715089502960C94F3130895805B9F4F0A
:105930000C94F313089582569F4F0C94F31308951B
:10594000FC01808191810895CF93DF93EB010E9448
:10595000E40528EE33E040E050E0D3D1C9018C1BD0
:105960009D0BDF91CF9108950E94E40528EE33E06E
:1059700040E050E0C6D1C901089580E090E00C9469
:10598000140608951092070581E080930505109292
:10599000040561E082E10E94B70661E083E10E94B4
:1059A000B706E9EBF0E080818E7F808380818D7F78
:1059B00080838CE08093B80085E48093BC000895D8
:1059C0000F934132C8F5909107059111FCCF92E0F9
:1059D00090930705009305059FEF90939A0410920A
:1059E000DF044093DE04DB0160EE74E0FB019E2FD8
:1059F000961B941718F49D919193F9CF1092060578
:105A000090910605880F892B8093060580910405E7
:105A1000813041F410920405809106058093BB000B
:105A200085EC01C085EE8093BC00222339F0809183
:105A30000705823019F4FBCF81E013C080919A04EE
:105A40008F3F71F080919A04803231F080919A04F6
:105A5000803321F483E005C082E003C084E001C00C
:105A600080E00F91089585ED8093BC008091BC008B
:105A700084FDFCCF10920705089585EC8093BC004F
:105A80001092070508951F920F920FB60F921124DE
:105A90002F933F934F935F936F937F938F939F9336
:105AA000AF93BF93EF93FF938091B900887F8036C7
:105AB00009F49CC068F5883209F45BC090F4803129
:105AC00009F454C038F4882309F4F3C0883009F489
:105AD0004DC0F2C0883109F44CC0803209F45DC079
